:020000040000FA
:060000000A128A11FC2F18
:100F46008316031388150815080083120313080C6B
:100F5600F000700C0139AF2F080083120313080C40
:100F6600F000F00C700C0139B82F0800F000700C7E
:100F760083120313031C0810031808140800F0005A
:100F8600700C83120313031C8810031888140800BE
:100F96008312031308108316031308108312031316
:100FA600881083160313881008000A128A11CB27AB
:100FB6000A128A110A128A11A3270A128A11E32F2A
:100FC6000A128A11B0270A128A110A128A11B9273F
:100FD6000A128A110A128A11A8270A128A110A12FB
:100FE6008A11C2270A128A11E32FE32F0A128A11E5
:0A0FF600002883010A128A11D82F87
:02400E00D4EFED
:00000001FF
